{
  "abi": [
    {
      "inputs": [],
      "name": "empty",
      "outputs": [
        {
          "internalType": "string",
          "name": "",
          "type": "string"
        }
      ],
      "stateMutability": "pure",
      "type": "function"
    }
  ],
  "bytecode": "608060405234801561001057600080fd5b5060ef8061001f6000396000f3fe6080604052348015600f57600080fd5b506004361060285760003560e01c8063f2a75fe414602d575b600080fd5b60408051808201825260168152751248185b48185b88195b5c1d1e4818dbdb9d1c9858dd60521b6020820152905160639190606c565b60405180910390f35b60006020808352835180602085015260005b81811015609857858101830151858201604001528201607e565b506000604082860101526040601f19601f830116850101925050509291505056fea264697066735822122020c31d80e76b7d66d4c66c281151c8f5fec14e773cd9ed28775befa45a9b944564736f6c63430008170033",
  "bytecodeSha1": "ca4ea9c408ec8315a774935ab3d54ea39ab065fe",
  "compiler": {
    "evm_version": "istanbul",
    "optimizer": {
      "enabled": true,
      "runs": 200
    },
    "version": "0.8.23+commit.f704f362"
  },
  "contractName": "EmptyContract",
  "language": "Solidity",
  "natspec": {
    "kind": "dev",
    "methods": {},
    "version": 1
  },
  "opcodes": "PUSH1 0x80 PUSH1 0x40 MSTORE CALLVALUE DUP1 ISZERO PUSH1 0xF JUMPI PUSH1 0x0 DUP1 REVERT JUMPDEST POP PUSH1 0x4 CALLDATASIZE LT PUSH1 0x28 JUMPI PUSH1 0x0 CALLDATALOAD PUSH1 0xE0 SHR DUP1 PUSH4 0xF2A75FE4 EQ PUSH1 0x2D JUMPI JUMPDEST PUSH1 0x0 DUP1 REVERT JUMPDEST PUSH1 0x40 DUP1 MLOAD DUP1 DUP3 ADD DUP3 MSTORE PUSH1 0x16 DUP2 MSTORE PUSH22 0x1248185B48185B88195B5C1D1E4818DBDB9D1C9858DD PUSH1 0x52 SHL PUSH1 0x20 DUP3 ADD MSTORE SWAP1 MLOAD PUSH1 0x63 SWAP2 SWAP1 PUSH1 0x6C JUMP JUMPDEST PUSH1 0x40 MLOAD DUP1 SWAP2 SUB SWAP1 RETURN JUMPDEST PUSH1 0x0 PUSH1 0x20 DUP1 DUP4 MSTORE DUP4 MLOAD DUP1 PUSH1 0x20 DUP6 ADD MSTORE PUSH1 0x0 JUMPDEST DUP2 DUP2 LT ISZERO PUSH1 0x98 JUMPI DUP6 DUP2 ADD DUP4 ADD MLOAD DUP6 DUP3 ADD PUSH1 0x40 ADD MSTORE DUP3 ADD PUSH1 0x7E JUMP JUMPDEST POP PUSH1 0x0 PUSH1 0x40 DUP3 DUP7 ADD ADD MSTORE PUSH1 0x40 PUSH1 0x1F NOT PUSH1 0x1F DUP4 ADD AND DUP6 ADD ADD SWAP3 POP POP POP SWAP3 SWAP2 POP POP JUMP INVALID LOG2 PUSH5 0x6970667358 0x22 SLT KECCAK256 KECCAK256 0xC3 SAR DUP1 0xE7 PUSH12 0x7D66D4C66C281151C8F5FEC1 0x4E PUSH24 0x3CD9ED28775BEFA45A9B944564736F6C6343000817003300 ",
  "sha1": "d6b1fd3a2d01c60eac95ef45ffb290b2ed410e06",
  "source": "// SPDX-License-Identifier: MIT\npragma solidity ^0.8.19;\n\n\ncontract EmptyContract{\n    function empty() external pure returns(string memory){\n        return \"I am an empty contract\";\n    }\n}",
  "sourcePath": "contracts/EmptyContract.sol",
  "type": "contract"
}