{
  "abi": [
    {
      "inputs": [
        {
          "internalType": "address",
          "name": "_receiver",
          "type": "address"
        }
      ],
      "name": "sendAndDestruct",
      "outputs": [],
      "stateMutability": "payable",
      "type": "function"
    }
  ],
  "bytecode": "6080604052348015600f57600080fd5b5060a28061001e6000396000f3fe608060405260043610601c5760003560e01c80638da6c2bc146021575b600080fd5b6030602c366004603e565b6032565b005b806001600160a01b0316ff5b600060208284031215604f57600080fd5b81356001600160a01b0381168114606557600080fd5b939250505056fea264697066735822122003868b657a165cae2d5f3cc89c393ec6f747489d1d74cebaa3139e134d226ce364736f6c63430008170033",
  "bytecodeSha1": "fb7d3dd03304055094cf7e434aa90b119df2142e",
  "compiler": {
    "evm_version": "istanbul",
    "optimizer": {
      "enabled": true,
      "runs": 200
    },
    "version": "0.8.23+commit.f704f362"
  },
  "contractName": "Sender",
  "language": "Solidity",
  "natspec": {
    "kind": "dev",
    "methods": {},
    "version": 1
  },
  "opcodes": "PUSH1 0x80 PUSH1 0x40 MSTORE PUSH1 0x4 CALLDATASIZE LT PUSH1 0x1C JUMPI PUSH1 0x0 CALLDATALOAD PUSH1 0xE0 SHR DUP1 PUSH4 0x8DA6C2BC EQ PUSH1 0x21 JUMPI JUMPDEST PUSH1 0x0 DUP1 REVERT JUMPDEST PUSH1 0x30 PUSH1 0x2C CALLDATASIZE PUSH1 0x4 PUSH1 0x3E JUMP JUMPDEST PUSH1 0x32 JUMP JUMPDEST STOP JUMPDEST DUP1 PUSH1 0x1 PUSH1 0x1 PUSH1 0xA0 SHL SUB AND SELFDESTRUCT JUMPDEST PUSH1 0x0 PUSH1 0x20 DUP3 DUP5 SUB SLT ISZERO PUSH1 0x4F JUMPI PUSH1 0x0 DUP1 REVERT JUMPDEST DUP2 CALLDATALOAD PUSH1 0x1 PUSH1 0x1 PUSH1 0xA0 SHL SUB DUP2 AND DUP2 EQ PUSH1 0x65 JUMPI PUSH1 0x0 DUP1 REVERT JUMPDEST SWAP4 SWAP3 POP POP POP JUMP INVALID LOG2 PUSH5 0x6970667358 0x22 SLT KECCAK256 SUB DUP7 DUP12 PUSH6 0x7A165CAE2D5F EXTCODECOPY 0xC8 SWAP13 CODECOPY RETURNDATACOPY 0xC6 0xF7 SELFBALANCE BASEFEE SWAP14 SAR PUSH21 0xCEBAA3139E134D226CE364736F6C63430008170033 ",
  "sha1": "715c4058a8dbb941b95c053d3a9ddbedf0e9686a",
  "source": "// SPDX-License-Identifier: MIT\npragma solidity ^0.8.19;\n\ncontract Sender{\n    function sendAndDestruct(address _receiver) external payable{\n        selfdestruct(payable(_receiver));\n    }\n}\n\ncontract SenderFactory{\n    \n    function _createSender() internal returns(Sender){\n        return new Sender();\n    }\n\n    function sendETH(address _to) external payable{\n        uint balanceBefore = _to.balance;\n\n        Sender sender = _createSender();\n        sender.sendAndDestruct{value: msg.value}(_to);\n\n        require(_to.balance == balanceBefore + msg.value, \"Factory: Transfer failed\");\n    }\n}\n",
  "sourcePath": "contracts/SenderETH.sol",
  "type": "contract"
}