{
  "abi": [
    {
      "inputs": [
        {
          "internalType": "address",
          "name": "_to",
          "type": "address"
        }
      ],
      "name": "sendETH",
      "outputs": [],
      "stateMutability": "payable",
      "type": "function"
    }
  ],
  "bytecode": "608060405234801561001057600080fd5b506102a4806100206000396000f3fe60806040526004361061001e5760003560e01c806321b1e5f814610023575b600080fd5b610036610031366004610157565b610038565b005b6001600160a01b03811631600061004d61011b565b604051632369b0af60e21b81526001600160a01b03858116600483015291925090821690638da6c2bc9034906024016000604051808303818588803b15801561009557600080fd5b505af11580156100a9573d6000803e3d6000fd5b505050505034826100ba9190610187565b836001600160a01b031631146101165760405162461bcd60e51b815260206004820152601860248201527f466163746f72793a205472616e73666572206661696c65640000000000000000604482015260640160405180910390fd5b505050565b60006040516101299061014b565b604051809103906000f080158015610145573d6000803e3d6000fd5b50905090565b60c0806101af83390190565b60006020828403121561016957600080fd5b81356001600160a01b038116811461018057600080fd5b9392505050565b808201808211156101a857634e487b7160e01b600052601160045260246000fd5b9291505056fe6080604052348015600f57600080fd5b5060a28061001e6000396000f3fe608060405260043610601c5760003560e01c80638da6c2bc146021575b600080fd5b6030602c366004603e565b6032565b005b806001600160a01b0316ff5b600060208284031215604f57600080fd5b81356001600160a01b0381168114606557600080fd5b939250505056fea264697066735822122003868b657a165cae2d5f3cc89c393ec6f747489d1d74cebaa3139e134d226ce364736f6c63430008170033a2646970667358221220095cc87f5d3379ede79723d236101488595fa10bae19ae844ecaa73d6936ab8e64736f6c63430008170033",
  "bytecodeSha1": "e0146b893de560269a3833951b333d960264a24d",
  "compiler": {
    "evm_version": "istanbul",
    "optimizer": {
      "enabled": true,
      "runs": 200
    },
    "version": "0.8.23+commit.f704f362"
  },
  "contractName": "SenderFactory",
  "language": "Solidity",
  "natspec": {
    "kind": "dev",
    "methods": {},
    "version": 1
  },
  "opcodes": "PUSH1 0x80 PUSH1 0x40 MSTORE PUSH1 0x4 CALLDATASIZE LT PUSH2 0x1E JUMPI PUSH1 0x0 CALLDATALOAD PUSH1 0xE0 SHR DUP1 PUSH4 0x21B1E5F8 EQ PUSH2 0x23 JUMPI JUMPDEST PUSH1 0x0 DUP1 REVERT JUMPDEST PUSH2 0x36 PUSH2 0x31 CALLDATASIZE PUSH1 0x4 PUSH2 0x157 JUMP JUMPDEST PUSH2 0x38 JUMP JUMPDEST STOP JUMPDEST PUSH1 0x1 PUSH1 0x1 PUSH1 0xA0 SHL SUB DUP2 AND BALANCE PUSH1 0x0 PUSH2 0x4D PUSH2 0x11B JUMP JUMPDEST PUSH1 0x40 MLOAD PUSH4 0x2369B0AF PUSH1 0xE2 SHL DUP2 MSTORE PUSH1 0x1 PUSH1 0x1 PUSH1 0xA0 SHL SUB DUP6 DUP2 AND PUSH1 0x4 DUP4 ADD MSTORE SWAP2 SWAP3 POP SWAP1 DUP3 AND SWAP1 PUSH4 0x8DA6C2BC SWAP1 CALLVALUE SWAP1 PUSH1 0x24 ADD PUSH1 0x0 PUSH1 0x40 MLOAD DUP1 DUP4 SUB DUP2 DUP6 DUP9 DUP1 EXTCODESIZE ISZERO DUP1 ISZERO PUSH2 0x95 JUMPI PUSH1 0x0 DUP1 REVERT JUMPDEST POP GAS CALL ISZERO DUP1 ISZERO PUSH2 0xA9 JUMPI RETURNDATASIZE PUSH1 0x0 DUP1 RETURNDATACOPY RETURNDATASIZE PUSH1 0x0 REVERT JUMPDEST POP POP POP POP POP CALLVALUE DUP3 PUSH2 0xBA SWAP2 SWAP1 PUSH2 0x187 JUMP JUMPDEST DUP4 PUSH1 0x1 PUSH1 0x1 PUSH1 0xA0 SHL SUB AND BALANCE EQ PUSH2 0x116 JUMPI PUSH1 0x40 MLOAD PUSH3 0x461BCD PUSH1 0xE5 SHL DUP2 MSTORE PUSH1 0x20 PUSH1 0x4 DUP3 ADD MSTORE PUSH1 0x18 PUSH1 0x24 DUP3 ADD MSTORE PUSH32 0x466163746F72793A205472616E73666572206661696C65640000000000000000 PUSH1 0x44 DUP3 ADD MSTORE PUSH1 0x64 ADD PUSH1 0x40 MLOAD DUP1 SWAP2 SUB SWAP1 REVERT JUMPDEST POP POP POP JUMP JUMPDEST PUSH1 0x0 PUSH1 0x40 MLOAD PUSH2 0x129 SWAP1 PUSH2 0x14B JUMP JUMPDEST PUSH1 0x40 MLOAD DUP1 SWAP2 SUB SWAP1 PUSH1 0x0 CREATE DUP1 ISZERO DUP1 ISZERO PUSH2 0x145 JUMPI RETURNDATASIZE PUSH1 0x0 DUP1 RETURNDATACOPY RETURNDATASIZE PUSH1 0x0 REVERT JUMPDEST POP SWAP1 POP SWAP1 JUMP JUMPDEST PUSH1 0xC0 DUP1 PUSH2 0x1AF DUP4 CODECOPY ADD SWAP1 JUMP JUMPDEST PUSH1 0x0 PUSH1 0x20 DUP3 DUP5 SUB SLT ISZERO PUSH2 0x169 JUMPI PUSH1 0x0 DUP1 REVERT JUMPDEST DUP2 CALLDATALOAD PUSH1 0x1 PUSH1 0x1 PUSH1 0xA0 SHL SUB DUP2 AND DUP2 EQ PUSH2 0x180 JUMPI PUSH1 0x0 DUP1 REVERT JUMPDEST SWAP4 SWAP3 POP POP POP JUMP JUMPDEST DUP1 DUP3 ADD DUP1 DUP3 GT ISZERO PUSH2 0x1A8 JUMPI PUSH4 0x4E487B71 PUSH1 0xE0 SHL PUSH1 0x0 MSTORE PUSH1 0x11 PUSH1 0x4 MSTORE PUSH1 0x24 PUSH1 0x0 REVERT JUMPDEST SWAP3 SWAP2 POP POP JUMP INVALID PUSH1 0x80 PUSH1 0x40 MSTORE CALLVALUE DUP1 ISZERO PUSH1 0xF JUMPI PUSH1 0x0 DUP1 REVERT JUMPDEST POP PUSH1 0xA2 DUP1 PUSH2 0x1E PUSH1 0x0 CODECOPY PUSH1 0x0 RETURN INVALID PUSH1 0x80 PUSH1 0x40 MSTORE PUSH1 0x4 CALLDATASIZE LT PUSH1 0x1C JUMPI PUSH1 0x0 CALLDATALOAD PUSH1 0xE0 SHR DUP1 PUSH4 0x8DA6C2BC EQ PUSH1 0x21 JUMPI JUMPDEST PUSH1 0x0 DUP1 REVERT JUMPDEST PUSH1 0x30 PUSH1 0x2C CALLDATASIZE PUSH1 0x4 PUSH1 0x3E JUMP JUMPDEST PUSH1 0x32 JUMP JUMPDEST STOP JUMPDEST DUP1 PUSH1 0x1 PUSH1 0x1 PUSH1 0xA0 SHL SUB AND SELFDESTRUCT JUMPDEST PUSH1 0x0 PUSH1 0x20 DUP3 DUP5 SUB SLT ISZERO PUSH1 0x4F JUMPI PUSH1 0x0 DUP1 REVERT JUMPDEST DUP2 CALLDATALOAD PUSH1 0x1 PUSH1 0x1 PUSH1 0xA0 SHL SUB DUP2 AND DUP2 EQ PUSH1 0x65 JUMPI PUSH1 0x0 DUP1 REVERT JUMPDEST SWAP4 SWAP3 POP POP POP JUMP INVALID LOG2 PUSH5 0x6970667358 0x22 SLT KECCAK256 SUB DUP7 DUP12 PUSH6 0x7A165CAE2D5F EXTCODECOPY 0xC8 SWAP13 CODECOPY RETURNDATACOPY 0xC6 0xF7 SELFBALANCE BASEFEE SWAP14 SAR PUSH21 0xCEBAA3139E134D226CE364736F6C63430008170033 LOG2 PUSH5 0x6970667358 0x22 SLT KECCAK256 MULMOD 0x5C 0xC8 PUSH32 0x5D3379EDE79723D236101488595FA10BAE19AE844ECAA73D6936AB8E64736F6C PUSH4 0x43000817 STOP CALLER ",
  "sha1": "715c4058a8dbb941b95c053d3a9ddbedf0e9686a",
  "source": "// SPDX-License-Identifier: MIT\npragma solidity ^0.8.19;\n\ncontract Sender{\n    function sendAndDestruct(address _receiver) external payable{\n        selfdestruct(payable(_receiver));\n    }\n}\n\ncontract SenderFactory{\n    \n    function _createSender() internal returns(Sender){\n        return new Sender();\n    }\n\n    function sendETH(address _to) external payable{\n        uint balanceBefore = _to.balance;\n\n        Sender sender = _createSender();\n        sender.sendAndDestruct{value: msg.value}(_to);\n\n        require(_to.balance == balanceBefore + msg.value, \"Factory: Transfer failed\");\n    }\n}\n",
  "sourcePath": "contracts/SenderETH.sol",
  "type": "contract"
}